:100000000C9443030C94101E0C94E91D0C94C21D17
:100010000C949B1D0C946B030C946B030C94741D3B
:100020000C946B030C946B030C94371E0C94A61E5B
:100030000C946B030C946B030C946B030C946B0388
:100040000C946B030C946B030C946B030C946B0378
:100050000C946B030C946B030C946B030C942A1D8F
:100060000C946B030C946B030C946B030C946B0358
:100070000C946B030C946B030C946B030C946B0348
:100080000C946B030C946B030C946B030C946B0338
:100090000C946B030C946B030C946B030C946B0328
:1000A0000C946B030C946B030C946B0305A84CCD60
:1000B000B2D44EB93836A9020C50B9918688083CA2
:1000C000A6AAAA2ABE000000803F080B0002020276
:1000D00000000904000001020200000524001001D4
:1000E0000524010101042402060524060001070578
:1000F000810310004009040100020A000000070506
:1001000002024000000705830240000004030904C6
:1001100012010002EF02014041233680000101027A
:10012000030141726475696E6F204C4C430041724B
:100130006475696E6F204C656F6E6172646F00004C
:10014000000000240027002A002D003000000000DD
:1001500000250028002B002E0031000404040404B4
:10016000030405020202020403020202020606065A
:1001700006060604040202020404040802011040F8
:100180008040102040804080080204018040201000
:100190000201108010204040200000000200090FE2
:1001A0000000030401000C0000000000000000003B
:1001B0000000000000000000050F0992A102850266
:1001C000099F09A009A409A509A615002501350064
:1001D0004501750195058102950381030994150078
:1001E000250135004501750195018102092215019E
:1001F000252835014528750795018102C00921A1EF
:100200000285010922150125283501452875089523
:100210000191020925A1020926092709300931099E
:1002200032093309340940094109420943092809BF
:10023000281501250C3501450C750895019100C064
:1002400009500954095109A7150026FF7F350046BA
:10025000FF7F66031055FD751095049102550066E9
:1002600000000952150026FF0035004610277508CA
:1002700095019102095315012508350145087508B6
:10028000950191020955A1020501093009311500B6
:100290002501750195029102C0050F09569501913E
:1002A00002950591030957A1020B01000A000B02F8
:1002B000000A0066140055FE150026FF00350047B1
:1002C000A08C00006600007508950291025500663A
:1002D0000000C0050F0958A1020B01000A000B0223
:1002E000000A0026FD7F751095029102C0C0095AD0
:1002F000A102850209221501252835014528750826
:1003000095019102095B095D160000261027360051
:1003100000461027751095029102095C095E66037C
:100320001055FD27FF7F000047FF7F0000752091DB
:100330000245006600005500C0095FA1028503095F
:1003400022150125283501452875089501910209D6
:100350002315002503350045037504950191020915
:1003600058A1020B01000A000B02000A0075029559
:10037000029102C016F0D826102736F0D846102772
:10038000096075109501910236F0D8461027096171
:1003900009629502910216000026102736000046D9
:1003A00010270963096475109502910209654610CA
:1003B0002795019102C0096EA10285040922150149
:1003C0002528350145287508950191020970160008
:1003D000002610273600004610277510950191025F
:1003E000096F16F0D826102736F0D8461027950149
:1003F00075109102097166140055FE1500279F8C37
:1004000000003500479F8C0000751095019102098E
:1004100072150027FF7F0000350047FF7F00006650
:10042000031055FD7520950191026600005500C02E
:100430000973A102850509221501252835014528E2
:10044000750895019102097016F0D826102736F02C
:10045000D8461027751095019102C00974A1028534
:1004600006092215012528350145287508950191B1
:10047000020975097616F0D826102736F0D84610EE
:1004800027751095029102C00968A102850709220B
:100490001501252835014528750895019102096C3B
:1004A000150026102735004610277510950191027A
:1004B00009691581257F350046FF007508950C9266
:1004C0000201C00966A1028508050109300931153C
:1004D00081257F350046FF00750895029102C00511
:1004E0000F0977A102850A09221501252835014542
:1004F000287508950191020978A1020979097A09FC
:100500007B15012503750895019100C0097C150034
:1005100026FF00350046FF009102C00990A1028528
:100520000B092215012528350145287508950191EB
:1005300002C00996A102850C099709980999099AA0
:10054000099B099C15012506750895019100C009B4
:100550007DA102850D097E150026FF00350046109D
:1005600027750895019102C0096BA102850E092229
:100570001501252835014528750895019102096D59
:10058000150026FF00350046FF0075089501910211
:10059000095166031055FD150026FF7F350046FF03
:1005A0007F7510950191025500660000C009ABA14E
:1005B0000285050925A10209260927093009310903
:1005C0003209330934094009410942094309282500
:1005D0000C15013501450C75089501B100C00501E8
:1005E000093B150026FF01350046FF01750A9501FC
:1005F000B1027506B101C0050F0989A1028506097E
:1006000022252815013501452875089501B10209F3
:100610008BA102098C098D098E2503150135014531
:100620000375089501B100C009AC150027FFFF0054
:1006300000350047FFFF000075109501B100C009AB
:100640007FA10285070980751095011500350027E7
:10065000FFFF000047FFFF0000B102098326FF00F3
:1006600046FF0075089501B10209A909AA7501950F
:10067000021500250135004501B10275069501B14D
:1006800003C0C000D22011241FBECFEFDAE0DEBFCE
:10069000CDBF11E0A0E0B1E0EEE3F7E502C00590C8
:1006A0000D92A83FB107D9F727E0A8EFB1E001C04C
:1006B0001D92AB3CB207E1F713E0C3E4D3E004C002
:1006C0002197FE010E948F27C234D107C9F70E94EB
:1006D0008F230C949D2B0C9400002F923F924F92ED
:1006E0005F926F927F928F929F92AF92BF92CF92C2
:1006F000DF92EF92FF920F931F93CF93DF93CDB7CB
:10070000DEB72A970FB6F894DEBF0FBECDBF8C01BF
:100710006A017B01ECE02E9F800D911D11249A87C8
:100720008987FC01608D718D90E080E00E94BB287C
:100730004B015C01E985FA8566857785072E000CFB
:10074000880B990B0E94BD2869837A838B839C83D5
:10075000E985FA8522883388268937893E832D8367
:100760008489958998878F830088F189E02DFA879D
:10077000E987A501940169817A818B819C810E941E
:100780009C272B013C01A70196010E94AC29181659
:100790000CF068C020E030E44CE156E4C301B20143
:1007A0000E9413289B01AC01C701B6010E949C273F
:1007B0006B017C01B101330C880B990B0E94BD28A1
:1007C0009B01AC01C701B6010E94B1294B015C013C
:1007D0002D813E81B90190E080E00E94BB286B0131
:1007E0007C01F7FAF094F7F8F094A7019601C5019F
:1007F000B4010E94092887FF02C046015701F80191
:100800006481B7FAB094B7F8B09470E090E080E0FB
:100810000E94BD289B01AC01C501B4010E94B12911
:1008200020E030E04FE753E40E9413280E9485281F
:10083000CB012A960FB6F894DEBF0FBECDBFDF9175
:10084000CF911F910F91FF90EF90DF90CF90BF90CD
:10085000AF909F908F907F906F905F904F903F9060
:100860002F90089529813A814B815C81C501B401A3
:100870000E949D272B013C01AC019B01C701B601E1
:100880000E94AC291816B4F5EF81F885BF0190E0FD
:1008900080E00E94BB284B015C0120E030E44CE189
:1008A00056E4C301B2010E9413289B01AC01C701A9
:1008B000B6010E949C276B017C0129853A85B9010C
:1008C000330F880B990B0E94BD289B01AC01C70117
:1008D000B6010E94B1297B018D8399839B01AC01F4
:1008E000C501B4010E94092887FD89CF4701AD8069
:1008F000B98085CF90E080E09CCF8F929F92AF929D
:10090000BF92CF92DF92EF92FF927B01BC01990FD1
:10091000880B990B0E94BD284B015C01B701FF0CAD
:10092000880B990B0E94BD289B01AC01C501B40145
:100930000E9413286B017C0120E030E040E85FE377
:100940000E94AC29181684F020E030E040E85FEB0C
:10095000C701B6010E94092887FF06C0C12CD12C0F
:1009600080E8E82E8FEBF82EC701B601FF90EF90DC
:10097000DF90CF90BF90AF909F908F9008952F926F
:100980003F924F925F926F927F928F929F92AF921F
:10099000BF92CF92DF92EF92FF920F931F93CF936C
:1009A000DF93CDB7DEB72E970FB6F894DEBF0FBE3C
:1009B000CDBF9A8389838B01FC01A4812185328577
:1009C000B0E00E9448272FEF30E040E050E00E9466
:1009D000F4266901330FEE08FF08A981BA81149645
:1009E000BC91BE87E981FA812581368144804D869C
:1009F0002780308442A853A8712C612C80A891A82C
:100A0000A40170E060E04D835E836F83788784A8E3
:100A100095A8B12CA12C66A577A5CB01B0E0A0E0EC
:100A200089879A87AB87BC8784149504A604B7048A
:100A30000CF085C09E85A92FB0E00E9448272FEFBB
:100A400030E040E050E00E94F426B901330F880BFB
:100A5000990B69837A838B839C83A7019601261B5C
:100A6000370B480B590BC501B4010E945727A3014E
:100A700092010E94F42649805A806B807C80240D6C
:100A8000351D461D571D89859A85AB85BC854D80D2
:100A90005E806F80788484199509A609B709881546
:100AA0009905AA05BB0554F591015D84A52DB0E01B
:100AB0000E9448272FEF30E040E050E00E94F426EB
:100AC0002901330F66087708A70196012419350913
:100AD0004609570969857A858B859C856819790946
:100AE0008A099B090E9457272D813E814F81588595
:100AF0000E94F426240D351D461D571DD8010E9465
:100B00001E27A70196010E94F426C9012E960FB652
:100B1000F894DEBF0FBECDBFDF91CF911F910F9133
:100B2000FF90EF90DF90CF90BF90AF909F908F900D
:100B30007F906F905F904F903F902F900895A70106
:100B40009601A1CF4F925F926F927F928F929F9268
:100B5000AF92BF92CF92DF92EF92FF920F931F93CB
:100B6000CF93DF930196EC01CC0FDD1FCC0FDD1F7F
:100B7000FE01E35EFE4FC080D180E280F3808E01F3
:100B800008501109F801E35EFE4F80809180A28039
:100B9000B380A5019401C701B6010E9409288823EA
:100BA00071F1CB5CDE4FF801EB5CFE4F20813181AF
:100BB00042815381688179818A819B810E949C272F
:100BC0002B013C01A5019401C701B6010E949C279D
:100BD0009B01AC01C301B2010E941328DF91CF91A8
:100BE0001F910F91FF90EF90DF90CF90BF90AF904B
:100BF0009F908F907F906F905F904F90089560E0EE
:100C000070E0CB01EBCFCF92DF92EF92FF920F9388
:100C10001F93CF93DF93D901E8016A01F9014217CD
:100C2000530714F06901FA01882309F440C0CB018D
:100C30006C157D050CF4C6019F018E179F070CF4FF
:100C40009C01A417B50734F4CF01821B930B9C01C0
:100C50002C0D3D1D0D2C000CEE08FF08032E000C82
:100C6000440B550B2C193D094E095F09AEEFBFEF40
:100C70000E9413279F01FF0F440B550B2C193D09B0
:100C80004E095F090E94F426DA01C9018F5F9F4770
:100C9000A109B1098883998382E090E0DF91CF9127
:100CA0001F910F91FF90EF90DF90CF90089590E00B
:100CB00080E0F4CFCF93DF93C1E2D7E0A881B98180
:100CC000E3E2F7E020813181A9014F5F5F4F51835B
:100CD0004083A20FB31F8C93888199812081318139
:100CE000A9014F5F5F4F51834083FC01E20FF31F67
:100CF0006083DF91CF910895CF93DF93C1E2D7E076
:100D0000A881B981E3E2F7E020813181A9014F5F39
:100D10005F4F51834083A20FB31F8C9388819981C9
:100D200020813181A9014F5F5F4F51834083FC01D6
:100D3000E20FF31F6083DF91CF910895282F30E0F9
:100D4000F901E756FE4F9491F901E658FE4F849160
:100D5000255A3E4FF9012491222309F430C09923EA
:100D6000E9F091509F30D0F4E92FF0E0E654F94FCC
:100D70000C948F27E806EC06C906E006E406CE06CA
:100D8000CE06CE06EF06F506F906FD060307CE06EB
:100D90000707909180009F7790938000E22FF0E00A
:100DA000EE0FFF1FE35BFE4FA591B4919FB7F89440
:100DB000EC91611132C080958E238C939FBF089572
:100DC000909180009F7DE8CF90918000977FE4CF45
:100DD00094B59F7794BDE2CF94B59F7DFBCF909162
:100DE00090009F7790939000D9CF909190009F7D35
:100DF000F9CF90919000977FF5CF9091C0009F77A9
:100E00009093C000CBCF9091C0009F7DF9CF90917F
:100E1000C200977F9093C200C1CF8E2BCECFCF93CD
:100E2000DF9390E0FC01E658FE4F2491855A9E4FD7
:100E3000FC0184918823D1F090E0880F991FFC0178
:100E4000E15CFE4FA591B491FC01E35BFE4FC591BF
:100E5000D491623071F49FB7F8943C91822F8095C1
:100E600083238C93E8812E2B28839FBFDF91CF9122
:100E700008958FB7F894EC912E2B2C938FBFF6CF5B
:100E80001F93CF93DF93182FEB0161E00E940F07B0
:100E9000209739F460E0812FDF91CF911F910C945E
:100EA0009E06CF3FD10511F461E0F5CFE12FF0E0D0
:100EB000E756FE4FE491E150EF3008F07FC0F0E0DC
:100EC000EC59F84F0C948F2773077B0780078A072C
:100ED0009407DE07DE07DE079E07A807B207BC07F8
:100EE000C907DE07D10784B5806884BDC7BDDF911F
:100EF000CF911F91089584B5806284BDC8BDF7CF9E
:100F000080918000806880938000D0938900C09396
:100F10008800EDCF80918000806280938000D09324
:100F20008B00C0938A00E3CF80918000886080931B
:100F30008000D0938D00C0938C00D9CF8091900019
:100F4000806880939000D0939900C0939800CFCF91
:100F500080919000806280939000D0939B00C0931A
:100F60009A00C5CF80919000886080939000D093C4
:100F70009D00C0939C00BBCF8091C000806880938F
:100F8000C0008091C0008F7B8093C000C093CF00D1
:100F9000AECF8091C00080628093C000C093D0002B
:100FA000A6CF8091C20088608093C2008091C20069
:100FB0008B7F8093C200C093D20099CFC038D105F7
:100FC0000CF072CF67CF3FB7F89480918B06909169
:100FD0008C06A0918D06B0918E0626B5A89B05C003
:100FE0002F3F19F00196A11DB11D3FBFBA2FA92FA8
:100FF000982F8827BC01CD01620F711D811D911DA5
:1010000042E0660F771F881F991F4A95D1F7089510
:10101000CF92DF92EF92FF920E94E3076B017C0177
:101020000E94E3076C197D098E099F09683E734091
:1010300081059105A8F3FF90EF90DF90CF90089580
:101040002FB7F89460918706709188068091890681
:1010500090918A062FBF08950F931F9399B189B17C
:1010600082709170892B90912706981729F1E09151
:10107000270694E0E902F0011124E82BEE52FE4F1E
:101080004081042F440F110B220B330B40916F064C
:10109000509170066091710670917206400F511F59
:1010A000621F731F40936F06509370066093710622
:1010B00070937206809327061F910F9108950895EB
:1010C000409162065091630620916006309161065E
:1010D00042175307B4F49091E8009570E1F39091B2
:1010E000E80092FD19C08093F10080916206909112
:1010F000630601968F739927892B19F48EEF8093DD
:10110000E8008091620690916306019690936306D1
:101110008093620681E0089580E00895EF92FF9247
:101120000F931F93CF93DF93F82E192FE62E042FE2
:1011300081E0860F880F0E94600883E00E946008AB
:10114000CF2DD12FEC0EFD2EF11CCE15DF05B9F001
:1011500007FF13C0FE0184910E946008182F80E0F1
:101160000E946008812321968111EFCFDF91CF91FA
:101170001F910F91FF90EF9008958881EDCF81E04E
:10118000F5CFDF92EF92FF920F931F93CF93DF93F0
:10119000D82E8A01EB017B01E40EF51ECE15DF058A
:1011A00059F0D7FE12C0FE0184910E94600821967A
:1011B0008111F4CF0FEF1FEFC801DF91CF911F9185
:1011C0000F91FF90EF90DF9008958881EECF2FB7B9
:1011D000F89487708093E9009091E800892F8072DD
:1011E00095FF04C09091F20080E4891B2FBF089501
:1011F0007F928F929F92AF92BF92CF92DF92EF92A7
:10120000FF920F931F93CF93DF93C82E8B017A0128
:1012100080916906811110C08FEF9FEFDF91CF9110
:101220001F910F91FF90EF90DF90CF90BF90AF9004
:101230009F908F907F9008958091670680FF05C0F2
:101240008091E00082608093E000CE2DDF2DD12CD4
:101250008AEFB82E8C2D8770982E8C2D8072882E58
:101260008C2D8074782E9AE3A92E209719F4DD2016
:1012700009F44EC08C2D0E94E708811106C0BA9473
:10128000BB2051F20E940808F0CF8C171D0611F008
:101290000CF08C2F9FB7F8949092E9002091E80011
:1012A00025FD02C09FBFE1CF282F30E0C21BD30B2A
:1012B000882029F08150A0F01092F100FBCFF801B6
:1012C000C7FC0AC0815050F041914093F100FACF21
:1012D00044914093F10031968150D0F7020F131FD3
:1012E000DD2021F0A092E800D12CDCCF8091E80035
:1012F00085FD07C0A092E800DD24D394209791F2E9
:10130000F3CF209779F6772069F2A092E800CACF50
:101310005D9884E680936606C70180CF9091690648
:10132000992319F13FB7F89487708093E900809171
:10133000F20090E0481759070CF4CA01282FFB016E
:1013400054E6215038F02898509365064091F100FA
:101350004193F7CF009739F02091F200211103C09B
:101360002BE62093E8003FBF08958FEF9FEF08958D
:101370009FB7F89487708093E9008091F2009FBF37
:101380000895615030F02091F100FC012083019616
:10139000F8CF289884E6809365060895AF92BF92AF
:1013A000DF92EF92FF920F931F93CF93DF935C0135
:1013B0008B01EB019BEFD92E2097C1F07E01C13448
:1013C000D1051CF080E4E82EF12C8091E80082FF2A
:1013D000FCCFC8018C1B9D0B6E2D8A0D9B1D0E949E
:1013E000C109D092E800CE19DF09E6CFC801DF912C
:1013F000CF911F910F91FF90EF90DF90BF90AF9032
:1014000008958091580681110DC082E080935406A2
:1014100084E080935506109257061092560681E09C
:101420008093580684E596E008950F931F93CF9319
:10143000DF931F92CDB7DEB782E0898342E450E0AC
:101440006AEC70E080E80E94C1080E94010ADC0199
:1014500012960D911C910115110589F0D801ED919D
:10146000FC910280F381E02DBE016F5F7F4FC801C8
:10147000099597FD04C0F80100851185ECCF89819D
:101480000F90DF91CF911F910F910895CF93DF932C
:10149000EC0180911201882331F083E00E94F8086A
:1014A0001816190634F081E090E09B838A8380E06F
:1014B00090E0DF91CF910895CF93DF931F92CDB746
:1014C000DEB76983DC01ED91FC910280F381E02DB0
:1014D00041E050E0BE016F5F7F4F09950F90DF91B3
:1014E000CF91089583E08093E9008091F2008823F2
:1014F00019F08AE38093E800089583E00E94E708EA
:1015000090E00895CF93DF931F92CDB7DEB7FC0133
:101510008485958597FD08C02FEF3FEF3587248799
:101520000F90DF91CF91089541E050E0BE016F5FD1
:101530007F4F82E00E948E09019719F4898190E023
:10154000EFCF8FEF9FEFECCF0F931F93CF93DF93EE
:101550001F92CDB7DEB78C01FC018485958597FF7E
:101560000FC041E050E0BE016F5F7F4F82E00E94FC
:101570008E09019771F4898190E0F801958784873D
:10158000F801848595850F90DF91CF911F910F9180
:1015900008958FEF9FEFF1CFFC018485958597FD2E
:1015A00006C082E00E94B80990E00196089582E0AA
:1015B0000E94B80990E00895CF92DF92EF92FF92D7
:1015C000CF93DF93EC010E9420086B017C018FE830
:1015D00096E00E94CC0A8C179D075CF40E942008BC
:1015E0006C197D098E099F09643671058105910585
:1015F00070F3DF91CF91FF90EF90DF90CF9008953F
:10160000CF93DF9300D000D0CDB7DEB769837A8364
:101610008B839C8344E050E0BE016F5F7F4F8FE877
:1016200096E00E94460A0F900F900F900F90DF9166
:10163000CF910895CF93DF9300D0CDB7DEB79A83D3
:10164000898341E050E0BE016F5F7F4F8FE896E0F5
:101650000E94460A0F900F90DF91CF910895BC0130
:1016600030E020E084E4DB01A45FBB4F829FF00107
:10167000839FF00D1124E60FF71F91819D7F9183C9
:101680004D915C9111974C5B5F4F11965C934E931B
:101690002F5F3F4F2F30310549F70895FB0128E4B4
:1016A000208329E4218324E42283DC01AD5DBB4F48
:1016B0009C919F709F5B93838D919C9124E0969564
:1016C00087952A95E1F78F708F5B848385E0089575
:1016D000EF92FF920F931F93CF93DF93DB012C9137
:1016E000213809F046C013962C911397223209F045
:1016F00040C0FC01428114962D913C914217130683
:10170000C1F58C01EF5DFB4FE080F180D0E0C0E0DF
:10171000E114F10441F1F70146815781628173813F
:1017200080E00E94C1088F3F980751F4CFEFDFEFB0
:10173000CE01DF91CF911F910F91FF90EF9008950F
:10174000C80FD91FF701408551856481758180E8F4
:101750000E94C1088F3F980749F3C80FD91FF701AE
:10176000E080F180D5CFF801EB5DFB4F81E0808315
:10177000DFCFD0E0C0E0DCCFCF93DF93CDB7DEB7D3
:10178000A0970FB6F894DEBF0FBECDBFFC01DB0102
:101790008C918F5F8C939E012D5F3F4F8CE0D90120
:1017A0001D928A95E9F799E0998384E08A8382E023
:1017B0008D8383E08E839A8791E29B8791E19C875A
:1017C00091E09D879F8722E2288B57E05B8B45E065
:1017D0004C8B8E8B20E430E0388F2F8B998F5A8F73
:1017E0004B8F8D8F3F8F2E8F98A382818B83DF014C
:1017F000AD5DBB4F9C9111968C91998B8A8B8381A7
:10180000982F90689D8B8F5F8C8F40E250E0BE01D7
:101810006F5F7F4F80E00E94C108A0960FB6F894DA
:10182000DEBF0FBECDBFDF91CF910895CF93DF9381
:1018300080911F0681118BC092E09093FC0181E0A2
:101840008093FD0127E136E03093FF012093FE01F4
:1018500010920102109200022AEC31E03093F9015B
:101860002093F801109200061092010610920206D1
:1018700010920306109205061092040610920706B5
:101880001092060620915301309154014091550168
:10189000209308063093090640930A0680930202BB
:1018A0009093FF0510921A061092190610921C06CA
:1018B00010921B0680931D0680931E0681EC809378
:1018C000170680EC809318060E94010AFC018181B2
:1018D0009091FC01482F490F5527551F483051055D
:1018E0009CF5A281B381109709F528EF31E033838D
:1018F000228320812093FA018093FB018091FD01D6
:10190000820F80832091FE01A22FB091FF018A2FC8
:10191000821B8917C8F481813D91C82FD0E0C05047
:10192000DF4F38838F5F8183F2CFD90118962D91D5
:101930003C91199721153105C1F728EF31E019962F
:101940003C932E931897D5CF81E080931F0688EFA4
:1019500091E0DF91CF910895CF93DF93EB01FC01EC
:101960006230710504F5648570E090E080E00E94CB
:10197000BD2820E030E044EB53E40E94B12920E090
:1019800030E04FE753E40E94132825E33AEF4EE896
:101990005CE30E94B129CD2B41F40E941E2A90588D
:1019A000DF91CF9108956585DFCFDF91CF910C94C2
:1019B0000E286F927F928F929F92AF92BF92CF929A
:1019C000DF92EF92FF920F931F93CF93DF93CDB7E8
:1019D000DEB76DB67EB6809120072DB73EB7281BC7
:1019E00031090FB6F8943EBF0FBE2DBF8DB79EB71D
:1019F00001966C01E090FB06F12C8091F706909126
:101A0000F806D601FC019F01281B390B2E153F0556
:101A10001CF421912D93F7CFE091FC06EE2381F188
:101A20000FEE16E030E020E0F0E088E6A82EBB24C0
:101A3000B3949DE2892E912C2E173F070CF5D80107
:101A40008D919D918D0168E097FD06C0B5010E94C2
:101A50007B27B4010E947B27D601AE0DBF1D20FD60
:101A600004C06C932F5F3F4FE7CF80E1689FB001C8
:101A700011248C91682B6C93D70111967D01F2CFC4
:101A800086010E0D1F1D2091010730910207409124
:101A9000FF06509100076091DF067091E00680918B
:101AA000FD0681700E940306E80EF91E86010E0DE8
:101AB0001F1D2091050730910607409103075091A3
:101AC00004076091E1067091E2068091FD0686951B
:101AD00081700E940306E80EF91E86010E0D1F1D7F
:101AE0002091090730910A07409107075091080794
:101AF0006091E3067091E4068091FD0682FB8827E1
:101B000080F90E940306E80EF91E86010E0D1F1DC6
:101B100020910D0730910E0740910B0750910C0753
:101B20006091E5067091E6068091FD0683FB8827AB
:101B300080F90E940306E80EF91E86010E0D1F1D96
:101B4000209111073091120740910F075091100713
:101B50006091E7067091E8068091FD06829581709C
:101B60000E940306E80EF91E86010E0D1F1D20912E
:101B70001507309116074091130750911407609193
:101B8000E9067091EA068091FD0685FB882780F9B9
:101B90000E940306E80EF91E86010E0D1F1D2091FE
:101BA000190730911A074091170750911807609153
:101BB000EB067091EC068091FD0686FB882780F984
:101BC0000E9403068E0D9F1D8601080F191F20918C
:101BD0001D0730911E0740911B0750911C07609113
:101BE000ED067091EE068091FD06881F8827881FFC
:101BF0000E9403060E94160C5C0140912007809110
:101C00001F0750E07A01BFEFEB1AFB0AEDB7FEB7F2
:101C1000EE19FF090FB6F894FEBF0FBEEDBF0DB76A
:101C20001EB70F5F1F4F8183B601C80101960E9446
:101C3000942BD50113968C91A701B80180640E9462
:101C4000F8080FB6F8947EBE0FBE6DBEDF91CF913F
:101C50001F910F91FF90EF90DF90CF90BF90AF90CA
:101C60009F908F907F906F9008958F929F92AF92E8
:101C7000BF920F931F93CF93DF93CDB7DEB7A1979A
:101C80000FB6F894DEBF0FBECDBF19A2423008F4E4
:101C90004AE08E010F5D1F4F842E912CB12CA12C98
:101CA000A50194010E942627E62FB901CA01EA3056
:101CB00044F5E05DD801EE938D01232B242B252BD9
:101CC00079F790E080E0109769F0FD010190002025
:101CD000E9F73197AF014A1B5B0BBD018FE896E036
:101CE0000E94460AA1960FB6F894DEBF0FBECDBF84
:101CF000DF91CF911F910F91BF90AF909F908F90E8
:101D00000895E95CD7CF2F923F924F925F926F92E6
:101D10007F928F929F92AF92BF92CF92DF92EF927B
:101D2000FF920F931F93CF93DF93CDB7DEB7C058C9
:101D3000D1090FB6F894DEBF0FBECDBF182F49E111
:101D400050E050934106409340062AE030E0309343
:101D50003D0620933C0686E990E0909339068093F7
:101D60003806509351064093500630934D06209309
:101D70004C06909349068093480680EB94E090933C
:101D80003506809334068091730690917406A09175
:101D90007506B091760690933706809336068EEFDF
:101DA00090E0909345068093440610924706109267
:101DB00046060E94200820916A0630916B06AB010E
:101DC000421B530B9A01C0902E06D0902F06E09034
:101DD0002C06F0902D06141615060CF0AFC011233A
:101DE00009F4ACC060936A0670936B0680936C062E
:101DF00090936D068091730690917406A09175067C
:101E0000B09176064091320650913306841B950BB3
:101E1000B9010E947B278B01809130069091310699
:101E2000919581959109B9010E947B27FB01B80129
:101E30006C197D094AE0469FC001479F900D11240F
:101E4000B9010E947B276B01BF016E197F09469F74
:101E5000C001479F900D1124B9010E947B27109368
:101E6000430600934206F0935306E0935206D09245
:101E70003F06C0923E0670934F0660934E06109345
:101E80003B0600933A06F0934B06E0934A06809196
:101E9000730690917406A0917506B09176069093A2
:101EA000330680933206109231061092300610935A
:101EB0002F0600932E06F0932D06E0932C06D09269
:101EC0002B06C0922A06709329066093280684E3A5
:101ED00096E090939607809395070E94160C8C01CC
:101EE000DC0113968C918F5F0E94B809882309F456
:101EF00081C0F801838140E450E0BE016F5F7F4FF5
:101F00008F5F0E948E09A801465F5F4F9A81E98129
:101F1000E150ED3008F06EC0F0E0EF56F04F0C9459
:101F20008F27BF0FB410CB10021119112411FA0F13
:101F3000FA0FFA0F3311A911D0110F12D0924306E4
:101F4000C0924206F0925306E092520680912A0611
:101F500090912B0690933F0680933E068091280631
:101F60009091290690934F0680934E06D0923B069F
:101F7000C0923A06F0924B06E0924A06A8CF2C8116
:101F80003D81692F70E0F80144E4949FE00DF11D5C
:101F9000112432AF21AF8F85878B8889808F8B8109
:101FA00084878C8587878E85868B4A855B85DF0154
:101FB000AD5BBF4F11965C934E93E35BFF4F808107
:101FC0008F3FC1F08081882309F4CCC08081240F29
:101FD000351F829FA001839F500D112484E4869FAA
:101FE000F001879FF00D1124E00FF11FEF5BFF4F11
:101FF00051834083109279061092780610927B06E6
:1020000010927A060E94160C895F9B4FDC018C911E
:10201000823009F009C20091950710919607F801E6
:1020200060817181828193810E947D0420E030E48F
:102030004CE156EC0E94B1292091590730915A0782
:1020400040915B0750915C070E94B1290E9485284E
:102050007093790660937806D80150966D917C91C3
:10206000519752968D919C910E947D0420E030E41E
:102070004CE156EC0E94B1292091910730919207D2
:1020800040919307509194070E94B1290E9485289E
:1020900070937B0660937A0660917806709179065A
:1020A000072E000C880B990B0E94BD282091250754
:1020B0003091260740912707509128070E94B129A7
:1020C0000E9485286131B7E27B0714F060E177E276
:1020D000603FE8ED7E0714F460EF78ED70937906C9
:1020E0006093780660917A0670917B06072E000C4B
:1020F000880B990B0E94BD2820915D0730915E07E7
:1021000040915F07509160070E94B1290E94852885
:102110006131F7E27F0714F060E177E2603F28ED7C
:10212000720714F460EF78ED70937B0660937A0683
:10213000C058DF4F0FB6F894DEBF0FBECDBFDF91A2
:10214000CF911F910F91FF90EF90DF90CF90BF90B4
:10215000AF909F908F907F906F905F904F903F9047
:102160002F90089581E033CF2B813C81F80154E416
:10217000959FE00DF11D1124318B208B8D819E8167
:10218000938B828B8F81988596AF85AF89859A8551
:1021900094AF83AF2FCF492F50E08B81F801A4E497
:1021A0009A9FE00DF11D1124E25BFF4F908189178A
:1021B00018F091E0980F90832C813D8194E4949FD6
:1021C000F001959FF00D1124BCE08B9FE00DF11DF7
:1021D0001124E00FF11F328F218F8E819F81948F08
:1021E000838F88859985968F858F8A859B8590A317
:1021F000878F8C859D8592A381A38E859F8594A3CF
:1022000083A3F8CE2B813C81F80144E4949FE00D38
:10221000F11D1124358B248B8D819E8196878587B6
:102220008F81988592AB81AB89859A8590AF87AB7A
:10223000E1CE2B813C81F80154E4959FE00DF11D26
:102240001124358B248BD6CE2B813C81F80184E47C
:10225000989FE00DF11D112434AB23AB8D819E813D
:1022600096AB85ABC7CE2C81E4E4EE2E692F70E0EF
:10227000F801E99EE00DF11D1124DF01A35BBF4FC2
:102280002C93FB80A1E0FA123EC02F3F39F5EF5BA3
:10229000FF4F2FEF3FE7318320839F3008F0AACE16
:1022A00084E4869FF001879FF00D11240E0F1F1FFD
:1022B00082E0F8018387FF96118210820E94200835
:1022C0004B015C01F801EB5BFF4F608391828283DD
:1022D000B38214821582168217828CCE2223E9F2F1
:1022E000DF01AD5BBF4F4D915C91A1ADB2AD4A0F27
:1022F0005B1F249FD001259FB00D1124EF5BFF4F82
:10230000B183A083CACF22E0F21210C0CA010E949A
:102310002F0B8A818F3008F06DCEE89E000D111DC5
:102320001124D8011B96FC92F801C5CFB3E0FB1233
:1023300061CE9F3008F05ECE83858D7F8387F80164
:10234000EA5EFB4F808191818C5B9F4F91838083FC
:1023500051CE9F3F89F481E0F80182873B968CEF54
:1023600093E0DF019C011D9221503040E1F7E55FD1
:10237000FB4F88EB93E0EACF9F3008F03BCEF801AB
:1023800034E4939FE00DF11D11241386D8011A96B1
:102390008C911A97981708F02DCE1A969C932ACEF6
:1023A000F801EF5EFB4F913031F1F801EF5EFB4F2A
:1023B000923041F0933051F4CA010E942F0BF80182
:1023C000E95FFB4F80818D7F808314CE9430B1F420
:1023D00081E0F80182873B968CEF93E0DF019C015E
:1023E0001D9221503040E1F7E55FFB4F88EB93E011
:1023F000918380833F9780818260E6CF953031F46E
:10240000F801E95FFB4F80818160DECF963009F0F3
:10241000F1CDF801E95FFB4F80818E7FD5CFF801C8
:10242000E25EFB4F9083E6CD69961FAE1EAE6997C4
:10243000AE014F5F5F4F23965FAF4EAF23970E9471
:10244000160C8C010E942008E4E46996AEADBFAD85
:102450006997EA9F9001EB9F300D1124200F311FE7
:10246000F901EB5BFF4F80809180A280B380C48034
:10247000D580E680F780AB0148195909D901DF966C
:1024800011965C934E933497808191818F3F9F4743
:1024900039F02D913C918081918128173907F8F40A
:1024A00084E469964EAD5FAD6997849FF001859F86
:1024B000F00D1124E00FF11F9F01215C3F4FD90166
:1024C0008D919C9161AD72ADED5BFF4F408151816B
:1024D000640F751F0E946727F9019183808344E48C
:1024E00069962EAD3FAD6997429F7001439FF00CF6
:1024F0001124F801EE0DFF1DDF01AD5BBF4F2D91E3
:102500003C91119714978D919C911197821B930B7D
:1025100011969C938E938385823009F067C28D91CA
:102520009C9111972D913C9181AD92AD82179307AB
:1025300008F45CC20E94160C895F9B4FDC018C91F1
:10254000811154C2BBE0EB0EF11CF801EE0DFF1D32
:102550002D96FFAFEEAF2D972396AEADBFAD23976F
:10256000E0E11D92EA95E9F769968EAD9FAD699716
:10257000019624E4289FF001299FF00D1124E00F1B
:10258000F11F8285813009F0E8C0312C212C299679
:102590001FAE1EAE2997E0919507F0919607E20DC8
:1025A000F31D62817381072E000C880B990B0E942A
:1025B000BD282B013C0129966EAD7FAD29972D9644
:1025C0008EAD9FAD2D970E94AC0C4B015C016B81D1
:1025D0007C81072E000C880B990B0E94BD286B0193
:1025E0007C01A5019401C301B2010E94B1299B01A4
:1025F000AC01C701B6010E949D270E9485287C83FB
:102600006B83E0919507F0919607E20DF31D6681CB
:102610007781072E000C880B990B0E94BD282B0197
:102620003C0129966EAD7FAD29972D968EAD9FAD5D
:102630002D970E94AC0C4B015C016F817885072EB1
:10264000000C880B990B0E94BD286B017C01A50131
:102650009401C301B2010E94B1299B01AC01C701E1
:10266000B6010E949D270E94852878876F83E0919C
:102670009507F0919607E20DF31D62857385072E8D
:10268000000C880B990B0E94BD282B013C01299658
:102690006EAD7FAD29972D968EAD9FAD2D970E9483
:1026A000AC0C4B015C016B857C85072E000C880B04
:1026B000990B0E94BD286B017C01A5019401C30107
:1026C000B2010E94B1299B01AC01C701B6010E9471
:1026D0009D270E9485287C876B87E0919507F09164
:1026E0009607E20DF31D66857785072E000C880B93
:1026F000990B0E94BD282B013C0129966EAD7FAD40
:1027000029972D968EAD9FAD2D970E94AC0C4B0155
:102710005C016F857889072E000C880B990B0E944D
:10272000BD286B017C01A5019401C301B2010E9487
:10273000B1299B01AC01C701B6010E949D270E94EF
:102740008528788B6F8750E1250E311C29968EAD38
:102750009FAD2997019709F0B9C0A8E7B6E0A79601
:10276000BFAFAEAFA797EFEDF6E02F96FFAFEEAF9E
:102770002F976B961FAE1EAE6B976D961FAE1EAE5B
:102780006D9744E469962EAD3FAD6997429F100165
:10279000439F300C1124200E311EC1014696E19654
:1027A0009FAF8EAFE1972F5F3F4F429FC001439F86
:1027B000900D1124080F191FD8011A96E596BFAF86
:1027C000AEAFE597F1013C96EF96FFAFEEAFEF9716
:1027D0009101235F3F4FA1963FAF2EAFA197A1017B
:1027E0004C5E5F4F6F965FAF4EAF6F97C158DF4F34
:1027F000B983A883CF57D040E196AEADBFADE19786
:102800008C91843061F08C9190E06C960FAC6C9759
:1028100002C0959587950A94E2F780FFC3C0E596BC
:10282000EEADFFADE5978081FE013196813061F01C
:10283000E0919507F09196076B968EAD9FAD6B97E3
:10284000880F991FE80FF91FA280B380E680F780F8
:10285000C284D38406851785E196AEADBFADE197FE
:102860008C91843009F040C0C158DF4FE881F98174
:10287000CF57D0408081823008F436C06C969FAC30
:102880006C9720E030E040E85FE32B962CAF3DAF43
:102890004EAF5FAF2B97EF96AEADBFADEF97EC911C
:1028A000E15070E060E0EB3008F071C0F0E0E55A14
:1028B000FB4E0C948F278614031554159D15131683
:1028C000EA16BD177618A9185B1B071C41E050E0FB
:1028D00029965FAF4EAF29975ECE81E090E06D966E
:1028E0009FAF8EAF6D9788CF6D966EAD7FAD6D97B4
:1028F0002D968EAD9FAD2D970E94AC0C2B966CAF94
:102900007DAF8EAF9FAF2B97912CC5CF6F96EEAD5D
:10291000FFAD6F9760817181D1011F961C91072EC9
:10292000000C880B990B0E94BD286B017C01612F64
:1029300070E090E080E00E94BD289B01AC01C701DF
:10294000B6010E94B12920E030E04FE753E40E9435
:1029500013280E948528072E000C880B990B0E94D3
:10296000BD282F96EEADFFAD2F97E65BFF4F208180
:102970003181428153810E94B1292B962CAD3DAD0E
:102980004EAD5FAD2B970E94B1290E948528A79676
:10299000AEADBFADA7978D919C911197680F791F30
:1029A0006D937C93A796EEADFFADA7973296A79651
:1029B000FFAFEEAFA7972F962EAD3FAD2F97285CB8
:1029C0003F4F2F963FAF2EAF2F976B964EAD5FAD1B
:1029D0006B97485F5F4F6B965FAF4EAF6B976D968F
:1029E0008EAD9FAD6D97019709F077CF6996AEAD2B
:1029F000BFAD699711966996BFAFAEAF69971E9745
:102A000009F01DCD49CBF10163A874A8FF96608140
:102A10007181D101D996ED90FC90DA97D5960D9100
:102A20001C91D697D396CD90DC9090E080E00E94E8
:102A3000BB284B015C01B70190E080E00E94BB28FD
:102A40009B01AC01C501B4010E9413284B015C013C
:102A5000B8016C197D09072E000C880B990B0E9498
:102A6000BD289B01AC01C501B4010E94B1296B01D5
:102A70007C01B301770C880B990B0E94BD289B0148
:102A8000AC01C701B6010E949D270E948528072E30
:102A9000000C880B990B0E94BD282F96EEADFFAD60
:102AA0002F97E25BFF4F63CFA196EEADFFADA197ED
:102AB000208131816F96AEADBFAD6F970D911C91A6
:102AC000F101FF9640815181F10181A992A907A8E6
:102AD000F0ADE02D220F331F8E9FB0018F9F700D40
:102AE0009E9F700D112481E090E0603A7C4810F4C4
:102AF00090E080E0840F951FBF010E946727F69544
:102B0000E795B801620F731FE817F90718F4B901C8
:102B1000601B710B2D968EAD9FAD2D970E94BF044B
:102B2000BC01990F880B990B0E94BD282F96EEAD22
:102B3000FFAD2F97EE5AFF4F1ACFA196EEADFFAD26
:102B4000A197608071806F96AEADBFAD6F970D910C
:102B50001C91F101C1A8D2A8FF9660817181D101B9
:102B6000D796ED90FC9090E080E00E94BB284B014E
:102B70005C01B70190E080E00E94BB289B01AC01A2
:102B8000C501B4010E9413284B015C01B60190E01D
:102B900080E00E94BB2820E030EA4CE057E40E942D
:102BA00013289B01AC01C501B4010E949D279B0124
:102BB000AC010E949D272BED3FE049E450E40E94C8
:102BC000B1290E941E2A6B017C01B801110F880BEC
:102BD000990B0E94BD28A70196010E94B1296B01A3
:102BE0007C01B301660F771F072E000C880B990B31
:102BF0000E94BD28A70196010E949D270E9485285A
:102C00002D968EAD9FAD2D970E94BF04BC01990FEC
:102C1000880B990B0E94BD282F96EEADFFAD2F9724
:102C2000EA5AFF4FA4CEA196EEADFFADA197608109
:102C30007181660F771F072E000C880B990B0E947D
:102C4000BD282B013C016F96AEADBFAD6F976D9166
:102C50007C91072E000C880B990B0E94BD282796AB
:102C60006CAF7DAF8EAF9FAF2797F101FF962081AC
:102C7000318161963FAF2EAF6197D101D196ED9032
:102C8000FC90D297D7960D911C91D897D7966D91BD
:102C90007C9190E080E00E94BB284B015C0127966C
:102CA0002CAD3DAD4EAD5FAD2797C301B2010E9483
:102CB0009C2767966CAF7DAF8EAF9FAF6797E09E06
:102CC000C001E19E900DF09E900D112461E070E036
:102CD000803A9C4810F470E060E090E080E00E9450
:102CE000BB286B017C016196EEADFFAD6197BF0122
:102CF00090E080E00E94BB289B01AC01C701B601B7
:102D00000E949D270E948C28CB01B8010E94672752
:102D1000BC0190E080E00E94BB286B017C012796FB
:102D20002CAD3DAD4EAD5FAD2797C301B2010E9402
:102D30009D2767962CAD3DAD4EAD5FAD67970E9468
:102D40009C279B01AC010E949D27A50194010E9434
:102D500013282B013C0120E030E040E05FE3C50197
:102D6000B4010E94B1299B01AC01C701B6010E94C8
:102D7000AC29181654F5A7019601C501B4010E94AB
:102D80009C27A30192010E94B1299B01AC01679687
:102D90006CAD7DAD8EAD9FAD67970E949D2790581D
:102DA0000E9485282D968EAD9FAD2D970E94BF0461
:102DB000BC01990F880B990B0E94BD282F96EEAD90
:102DC000FFAD2F97E65AFF4FD2CDA3019201C70165
:102DD000B601D9CFA196AEADBFADA1976D917C9153
:102DE000660F771F072E000C880B990B0E94BD28D9
:102DF0006B017C016F96EEADFFAD6F9760817181C5
:102E0000072E000C880B990B0E94BD2827966CAFEB
:102E10007DAF8EAF9FAF2797F101FF962081318163
:102E200065963FAF2EAF6597D101D1960D90BC91BD
:102E3000A02D6196BFAFAEAF6197F10107A910ADAC
:102E400027A930ADA3963FAF2EAFA3979B01AC014E
:102E5000C701B6010E949C272B013C01B80190E0FC
:102E600080E00E94BB284B015C0161964EAD5FADD6
:102E70006197BA0190E080E00E94BB28A50194010F
:102E80000E94B12920E030EA4CE057E40E94132868
:102E90000E948528072E000C880B990B0E94BD28E4
:102EA00063966CAF7DAF8EAF9FAF63976596AEAD07
:102EB000BFAD6597BD0190E080E00E94BB289B01FB
:102EC000AC0163966CAD7DAD8EAD9FAD63970E94F6
:102ED0009D270E948C28CB01B8010E946727BC0166
:102EE00090E080E00E94BB289B01AC01C501B401C9
:102EF0000E949C274B015C0127962CAD3DAD4EAD49
:102F00005FAD2797C701B6010E949D27A3019201DB
:102F10000E949C276B017C01A396EEADFFADA397A9
:102F2000BF0190E080E00E94BB289B01AC01C7017B
:102F3000B6010E9413289B01AC01C501B4010E9497
:102F4000B1299B01AC01C301B2010E949D27905899
:102F50000E9485282D968EAD9FAD2D970E94BF04AF
:102F6000BC01990F880B990B0E94BD282F96EEADDE
:102F7000FFAD2F97E25AFF4FFACCA196AEADBFAD91
:102F8000A1976D917C91660F771F072E000C880B1F
:102F9000990B0E94BD286B017C016F96EEADFFADD1
:102FA0006F9760817181072E000C880B990B0E942E
:102FB000BD284B015C01F101FF96208131816596AE
:102FC0003FAF2EAF6597D101D1966D907C90D2978F
:102FD000D7960D911C91D897D796ED91FC9161965B
:102FE000FFAFEEAF6197AC019B01C701B6010E9434
:102FF0009C2727966CAF7DAF8EAF9FAF2797609EC3
:10300000C001619E900D709E900D112461E070E0F2
:10301000803A9C4810F470E060E0072E000C880BAA
:10302000990B0E94BD282B013C0165962EAD3FAD4A
:103030006597B90190E080E00E94BB289B01AC013C
:10304000C301B2010E949D270E948C28CB01B801C8
:103050000E946727BC0190E080E00E94BB282B0102
:103060003C01A5019401C701B6010E949D27279646
:103070002CAD3DAD4EAD5FAD27970E949C276B01F7
:103080007C0161964EAD5FAD6197BA0190E080E042
:103090000E94BB289B01AC01C701B6010E94132806
:1030A0009B01AC01C301B2010E94B1299B01AC019B
:1030B00027966CAD7DAD8EAD9FAD27970E949D2765
:1030C00090580E9485282D968EAD9FAD2D970E9419
:1030D000BF04BC01990F880B990B0E94BD282F9645
:1030E000EEADFFAD2F97EE59FF4F41CCE091950724
:1030F000F09196076B968EAD9FAD6B97880F991FD9
:10310000E80FF91F60817181C5010E947D04AB0148
:10311000BC01292D2D968EAD9FAD2D970E946D037C
:10312000BC01990F880B990B0E94BD282B962CADE2
:103130003DAD4EAD5FAD2B970E94B1292F96EEAD00
:10314000FFAD2F97EA59FF4F208131814281538192
:103150001ACCE0919507F09196076B968EAD9FADD6
:103160006B97880F991FE80FF91F64817581C7015C
:103170000E947D04AB01BC01292D2D968EAD9FAD23
:103180002D970E946D03BC01990F880B990B0E942B
:10319000BD282B962CAD3DAD4EAD5FAD2B970E945B
:1031A000B1290E948528A5966CAF7DAF8EAF9FAFE9
:1031B000A597A3966EAD7FADA39777FF03C07195DA
:1031C00061957109072E000C880B990B0E94BD2890
:1031D0006B017C0180911D0190911E01A0911F0146
:1031E000B091200127968CAF9DAFAEAFBFAF2797B0
:1031F0009C01AD01C701B6010E94092818160CF404
:1032000056C02091350130913601409137015091DF
:1032100038012B962CAF3DAF4EAF5FAF2B9720E020
:1032200030E44CE156E42B966CAD7DAD8EAD9FAD98
:103230002B970E9413286B017C01A396AEADBFAD06
:10324000A397BD01BB0F880B990B0E94BD289B0162
:10325000AC01C701B6010E94B1296B960EAD1FAD3E
:103260006B970954184FF801C080D180E280F38039
:103270000E948528072E000C880B990B0E94BD2800
:10328000A70196010E949C27D80114962D913D918B
:103290004D915C9117970E94B129A70196010E9458
:1032A0009D27F80160837183828393836ECB809125
:1032B000310190913201A0913301B09134016796B0
:1032C0008CAF9DAFAEAFBFAF67979C01AD01C7019B
:1032D000B6010E94AC2971E2672E71E0772E10E0F2
:1032E00000E087FD09C02091490130914A014091D9
:1032F0004B0150914C018DCFA3014D5151402A01FA
:10330000D3018D909D90AD90BD903D01A50194019C
:10331000C701B6010E94AC2987FD03C00F5F1F4F94
:10332000EBCFF201EB5CFE4F208131814281538172
:103330002B962CAF3DAF4EAF5FAF2B97A5019401FD
:10334000C701B6010E940928882309F468CFA801A3
:10335000440F551F440F551FE3965FAF4EAFE397E1
:10336000FA01E35EFE4F4080518062807380A301CA
:103370009201C501B4010E949C2763966CAF7DAF9A
:103380008EAF9FAF6397A3019201C701B6010E9460
:103390009C2763962CAD3DAD4EAD5FAD63970E940B
:1033A00013284B015C01AC019B010E94B1292B0148
:1033B0003C01AC019B01C501B4010E94B1296B0124
:1033C0007C01AC019B010E949D27AB966CAF7DAF49
:1033D0008EAF9FAFAB9720E030E040E450E4C301F4
:1033E000B2010E94B129AF966CAF7DAF8EAF9FAF97
:1033F000AF979B01AC01AB966CAD7DAD8EAD9FAD33
:10340000AB970E949C2720E030E040E85FE30E94F9
:103410009D27E9966CAF7DAF8EAF9FAFE997A30173
:103420009201C301B2010E949D279B01AC01C7011B
:10343000B6010E949C27A50194010E949D27ED964C
:103440006CAF7DAF8EAF9FAFED97AB962CAD3DAD22
:103450004EAD5FADAB97AF966CAD7DAD8EAD9FAD14
:10346000AF970E949C27AB966CAF7DAF8EAF9FAF9E
:10347000AB97A3019201C701B6010E949C27AF96AA
:103480006CAF7DAF8EAF9FAFAF97E396EEADFFAD64
:10349000E397EB5CFE4F40805180628073800115A2
:1034A000110509F0AFC0C0903501D0903601E09011
:1034B0003701F0903801A7019601609139017091B0
:1034C0003A0180913B0190913C010E949C274B0165
:1034D0005C0127962CAD3DAD4EAD5FAD2797609159
:1034E00021017091220180912301909124010E9479
:1034F0009C279B01AC01C501B4010E9413284B011C
:103500005C01A701960160913D0170913E0180919F
:103510003F01909140010E949C276B017C012796FE
:103520002CAD3DAD4EAD5FAD2797609125017091FB
:10353000260180912701909128010E949C279B01E0
:10354000AC01C701B6010E9413286B017C01A301E5
:103550009201E9966CAD7DAD8EAD9FADE9970E946D
:10356000B1292B013C012B962CAD3DAD4EAD5FAD8D
:103570002B97AB966CAD7DAD8EAD9FADAB970E949A
:10358000B1299B01AC01C301B2010E949D272B010F
:103590003C01ED962CAD3DAD4EAD5FADED97639624
:1035A0006CAD7DAD8EAD9FAD63970E94B129A50135
:1035B00094010E94B1299B01AC01C301B2010E9498
:1035C0009D274B015C01AF962CAD3DAD4EAD5FAD7F
:1035D000AF9763966CAD7DAD8EAD9FAD63970E9446
:1035E000B129A70196010E94B1299B01AC01C50137
:1035F000B4010E949D272B966CAF7DAF8EAF9FAF1D
:103600002B970DCE0430110509F04BC0C090490135
:10361000D0904A01E0904B01F0904C012091410183
:10362000309142014091430150914401C701B601DC
:103630000E949C274B015C012091290130912A01B5
:1036400040912B0150912C0167966CAD7DAD8EADF4
:103650009FAD67970E949C279B01AC01C501B401F7
:103660000E9413284B015C012091450130914601D5
:103670004091470150914801C701B6010E949C2723
:103680006B017C0120912D0130912E0140912F0181
:103690005091300167966CAD7DAD8EAD9FAD679753
:1036A0004CCFC8010E94A2054B015C01C8010196E4
:1036B0000E94A2054ACFD7FEA7C017FF6FC0E091B6
:1036C0009507F09196076D968EAD9FAD6D9744E08E
:1036D000880F991F4A95E1F7E80FF91F60857185FA
:1036E000C6010E947D046B017C0120E030E0A9014D
:1036F0000E94AC29181624F0F7FAF094F7F8F09429
:10370000292DB701A6012D968EAD9FAD2D970E9454
:103710006D03BC01990F880B990B0E94BD282B9655
:103720002CAD3DAD4EAD5FAD2B970E94B1292F96CC
:10373000EEADFFAD2F97E259FF4F208131814281DD
:1037400053810E94B1290E9485288B016B962EAD72
:103750003FAD6B972955384F7901D9018D909D90D8
:10376000AD90BC90B801110F880B990B0E94BD2839
:10377000A50194010E949C27F7012481358146818F
:1037800057810E94B129A50194010E949D27D7016C
:103790006D937D938D939C931397F7C80115110535
:1037A000A9F2E0919507F09196076D968EAD9FADC9
:1037B0006D9734E0880F991F3A95E1F7E80FF91FEC
:1037C00060857185C6010E947D046B017C0120E04B
:1037D00030E0A9010E94AC29181624F0F7FAF09401
:1037E000F7F8F094292DB701A6012D968EAD9FAD67
:1037F0002D970E946D0366277727681B790B072E8C
:10380000000C880B990B89CF10E000E09FCFE0916E
:103810009507F09196076B968EAD9FAD6B97880FCD
:10382000991FE80FF91F64857585C8010E947D0402
:10383000AB01BC01292D2D968EAD9FAD2D970E9419
:103840006D036B960EAD1FAD6B970956184FF801BF
:10385000C080D180E280F380BC01990F880B990B66
:103860000E94BD282B962CAD3DAD4EAD5FAD2B9784
:103870000E94B1292F96EEADFFAD2F97EE58FF4F66
:1038800020813181428153810E94B129F1CC0F9373
:103890001F93CF93DF93CDB7DEB72A970FB6F89477
:1038A000DEBF0FBECDBFDC0112964C911297FB011B
:1038B000248135814217130609F046C08C0191819D
:1038C0008081813A09F042C09130D9F583818130FD
:1038D00049F4BD01605F7B4F43E050E080E40E940B
:1038E000C10813C0833089F492819630D1F48BECF7
:1038F00097E00197F1F70D5E1B4F45E050E0B801EE
:1039000080E40E94C108D8011C9281E02A960FB67B
:10391000F894DEBF0FBECDBFDF91CF911F910F9105
:103920000895973091F799832FEF3FEF3B832A83D8
:103930009EE09C838D8345E050E0BE016F5F7F4F2A
:10394000CDCF81E0933011F380E0E0CF8132E1F719
:103950009B3031F48281FD01EB5DFB4F8083D5CF3D
:103960009A3029F48281FD01EA5DFB4FF7CF99304F
:1039700059F78381833049F686819781892B39F401
:1039800070E060E0CE0101960E94CE09BECF828138
:10399000853009F0BACF64E070E0CE0101960E9454
:1039A000CE0986E0F801ED5EFB4F8083F801828549
:1039B0008E3089F1828591E0980F928724E4D801B6
:1039C0001A969C91F801299FE00DF11D1124938511
:1039D000992341F0F80192859E3020F492859F5FF3
:1039E0009287EDCF91E0F80124E4829FE00DF11D74
:1039F00011249387F801EE5EFB4F8083F801EC5EA3
:103A0000FB4F80838081D801AB5EBB4F811105C025
:103A100082E08C937ACF80E0F1CF21E02C938081FB
:103A200034E4839FC0011124F801E80FF91F3B968D
:103A3000DF011D923A95E9F7800F911FFC01238762
:103A4000F801EA5EFB4F8081918184549109918352
:103A500080835BCF1F920F920FB60F9211242F938A
:103A60003F938F939F93AF93BF93809187069091DD
:103A70008806A0918906B0918A063091860623E0D7
:103A8000230F2D3758F50196A11DB11D20938606F1
:103A90008093870690938806A0938906B0938A0640
:103AA00080918B0690918C06A0918D06B0918E0628
:103AB0000196A11DB11D80938B0690938C06A09357
:103AC0008D06B0938E06BF91AF919F918F913F91DC
:103AD0002F910F900FBE0F901F90189526E8230F7F
:103AE0000296A11DB11DD2CF1F920F920FB60F9259
:103AF00011242F933F934F935F936F937F938F93F3
:103B00009F93AF93BF93EF93FF93E0911B01F091CD
:103B10001C010995FF91EF91BF91AF919F918F91FA
:103B20007F916F915F914F913F912F910F900FBEB9
:103B30000F901F9018951F920F920FB60F9211249D
:103B40002F933F934F935F936F937F938F939F93A5
:103B5000AF93BF93EF93FF93E0911901F0911A0196
:103B60000995FF91EF91BF91AF919F918F917F91B7
:103B70006F915F914F913F912F910F900FBE0F90DA
:103B80001F9018951F920F920FB60F9211242F932A
:103B90003F934F935F936F937F938F939F93AF93D5
:103BA000BF93EF93FF93E0911701F09118010995EE
:103BB000FF91EF91BF91AF919F918F917F916F9105
:103BC0005F914F913F912F910F900FBE0F901F90DB
:103BD00018951F920F920FB60F9211242F933F93B7
:103BE0004F935F936F937F938F939F93AF93BF9305
:103BF000EF93FF93E0911501F09116010995FF9164
:103C0000EF91BF91AF919F918F917F916F915F9154
:103C10004F913F912F910F900FBE0F901F901895CD
:103C20001F920F920FB60F9211242F933F934F9331
:103C30005F936F937F938F939F93AF93BF93EF9314
:103C4000FF93E0911301F09114010995FF91EF9119
:103C5000BF91AF919F918F917F916F915F914F91A4
:103C60003F912F910F900FBE0F901F9018951F92AC
:103C70000F920FB60F9211248F939F938091E100C2
:103C80009091E100937F9093E10083FF0FC0109229
:103C9000E90091E09093EB001092EC0092E3909396
:103CA000ED001092690698E09093F00082FF22C028
:103CB00093E09093E9009091F200992319F09AE330
:103CC0009093E80090916606992341F090916606E2
:103CD000915090936606911101C05D9A909165068E
:103CE000992341F09091650691509093650691114A
:103CF00001C0289A84FF18C08091E2008E7E816006
:103D00008093E2008091E1008F7E8093E1008091BA
:103D100067068E7E8061809367069F918F910F90DA
:103D20000FBE0F901F90189580FFF7CF8091E20093
:103D30008E7E80618093E2008091E1008E7E809390
:103D4000E100809167068E7E8160E5CF1F920F9221
:103D50000FB60F921124CF92DF92EF92FF920F9342
:103D60001F932F933F934F935F936F937F938F9303
:103D70009F93AF93BF93EF93FF93CF93DF93CDB711
:103D8000DEB76C97DEBFCDBF1092E9008091E800EE
:103D900083FF25C068E0CE0145960E94C10982EFED
:103DA0008093E8008D8987FF39C09091E80090FFEB
:103DB000FCCF982F907609F034C19E894F89588D99
:103DC0002F89F88C911131C0803861F58091680697
:103DD0008093F1001092F1008EEF8093E8006C96D2
:103DE0000FB6F894DEBF0FBECDBFDF91CF91FF912C
:103DF000EF91BF91AF919F918F917F916F915F9163
:103E00004F913F912F911F910F91FF90EF90DF9075
:103E1000CF900F900FBE0F901F9018959EEF90932C
:103E2000E800C7CF1092F100D5CF913059F481113D
:103E3000D3CF4130510581F6809168068D7F809304
:103E40006806CACF933049F48111C6CF413051057D
:103E500019F6809168068260F2CF953041F4809126
:103E6000E80080FFFCCF20682093E300B5CF9630B8
:103E700009F0A9C00B8D1C8D22E01092E900109270
:103E8000630610926206F2122EC010926106109222
:103E900060060E94150A1F8299E09983FA8291E0D8
:103EA0009E8390EA98879AEF9987209162063091D5
:103EB0006306275F3F4F3C832B838D831092E9007D
:103EC00010926306109262061093610600936006DA
:103ED00049E050E0BE016F5F7F4F80E00E94C10863
:103EE0000E94150A79CF10936106009360060E9424
:103EF000010ADC0112960D911C910115110509F4BE
:103F00004BC1D801ED91FC910480F581E02DBE01FB
:103F10006B5E7F4FC8010995009709F038C1F80121
:103F200000851185EACFF3E0FF120EC08F89882348
:103F300009F440C0823061F440E860E18EE291E033
:103F40000E948E08811148CF81E28093EB0047CF19
:103F5000813029F440E86BE082E291E0F1CF8330D8
:103F600099F70E94010ADC011296ED90FC908E01F7
:103F70000F5F1F4F6801E114F10479F0D701ED9153
:103F8000FC910680F781E02DB801C7010995080F63
:103F9000111DF701E084F184EECFD8011C92F601E7
:103FA00001900020E9F73197BF016C197D0940E0CD
:103FB000C601C6CF6CE071E0FB01449150E080E89F
:103FC0000E94C10809CF973009F4BECF983021F480
:103FD00081E08093F10000CF993009F0FDCE83702D
:103FE00009F0B2CFE1E0F1E081E031E096E3219128
:103FF000222371F08093E9003093EB00DF011197E9
:104000002C912093EC009093ED008F5F873079F72F
:104010008EE78093EA001092EA008F898093690608
:10402000DBCE8B8D9C8D1092E9001092630610926E
:1040300062069093610680936006898D81118CC021
:104040008E899D89913A49F4813209F07DCF47E00C
:1040500050E06BE071E080E0B3CF913209F074CFB3
:10406000833269F48F89988DB0E0A0E080930701D6
:1040700090930801A0930901B0930A01ADCE80325C
:1040800039F467E070E08BE091E00E94CE09A4CEA5
:10409000823209F0A1CE8F8980931201EEEFFFE703
:1040A000859194918B3F9C4D51F1E0E0F8E0809137
:1040B0000B0190910C01A0910D01B0910E01803B7C
:1040C0009440A105B105F1F48091120180FD1AC060
:1040D000EE3F8AE0F80789F587E797E791838083C9
:1040E000809160008093640688E19BE00FB6F894AD
:1040F000A895809360000FBE909360006DCEEEEFA8
:10410000FAE0D5CF808191818737974709F064CE57
:10411000A89580916000886180936000809164061A
:1041200080936000EE3F2AE0F20789F08091FE0A5A
:104130009091FF0A918380834FCE80819181873750
:10414000980751F29093FF0A8093FE0AC5CF109210
:10415000FF0A1092FE0A40CE0E94010ADC0112966C
:104160000D911C910115110509F4EECED801ED91C8
:10417000FC910190F081E02DBE016B5E7F4FC80184
:104180000995811129CEF80100851185EBCF18160C
:1041900019060CF421CED8CEF1E0FF12C4CE60E1B6
:1041A00071E00ACFEF92FF920F931F93CF93DF93AB
:1041B000109292061092910688EE93E0A0E0B0E093
:1041C0008093930690939406A0939506B0939606D9
:1041D00086EE91E09093900680938F068FEF9FEF8D
:1041E00090939C0680939B061092F8061092F70617
:1041F0001092FB06109200071092FF068FEF93E0DB
:10420000909302078093010710920407109203070E
:1042100090930607809305071092080710920707EE
:1042200090930A078093090710920C0710920B07CE
:1042300090930E0780930D071092100710920F07AE
:10424000909312078093110710921407109213078E
:10425000909316078093150710921807109217076E
:1042600090931A078093190710921C0710921B074E
:1042700090931E0780931D0780E7E6E5F1E0A5E235
:10428000B7E001900D928A95E1F781E080931F07D6
:1042900092E09093FA061092FC068093FD0610922D
:1042A00024071092230786E990E00E946F2A9093DA
:1042B00022078093210761E070E085E00E945A06A2
:1042C00064E089E00E947C0661E070E081EA0E947F
:1042D0005A0661E070E089E00E945A0661E070E0F1
:1042E00085E80E945A068091FA06882309F440C0A6
:1042F00069E070E085E00E945A0661E070E089E1C3
:104300000E945A066091FA0689E20E947C0670E0DB
:1043100060E085E10E945A0661E070E085E20E945B
:104320005A0661E070E085E70E945A066091FA063D
:1043300085E90E947C0670E060E085E50E945A06EF
:1043400070E060E085E60E945A0662E070E081E875
:104350000E945A0661E070E085E70E945A0666E016
:1043600085E90E947C0663E070E081E80E945A06BD
:1043700061E070E085E00E945A06D0E0C0E016E4FB
:104380008091FC068C171D0609F00CF441C069E30E
:1043900070E089E00E945A0670E060E085E10E94CA
:1043A0005A0667E070E085E20E945A0670E060E01D
:1043B00085E30E945A06E0912107F091220780913F
:1043C0002307909124079C012F5F3F4F30932407D0
:1043D00020932307E80FF91F108361E070E08BE35F
:1043E0000E945A0664E170E085E60E945A0664E085
:1043F00070E085E70E945A0661E070E085E90E945E
:104400005A0662E070E081E80E945A062196B8CF11
:1044100080FF0FC061E070E085E70E945A0664E00B
:1044200070E085E90E945A0663E070E081E80E942E
:104430005A0661E070E089E00E945A06E091210787
:10444000F091220780912307909124079C012F5F10
:104450003F4F3093240720932307E80FF91F86E18D
:10446000808360E870E081E00E945A06E0912107B5
:10447000F091220780912307909124079C012F5FE0
:104480003F4F3093240720932307E80FF91F86E25C
:1044900080836FE770E08FEF0E945A0660E170E062
:1044A00085E70E945A0661E085E90E947C0670E07B
:1044B00060E081EA0E945A0660E370E089E00E94B1
:1044C0005A0662E070E081E80E945A06E0912107F6
:1044D000F091220780912307909124079C012F5F80
:1044E0003F4F3093240720932307E80FF91F80ECF8
:1044F00080830091230710912407C8010E946F2A2E
:104500007C016091210770912207A8010E94942BE1
:104510008BE090E00E946F2AEC0119821882FB82E6
:10452000EA8288EB91E09D838C831F830E838BEC62
:1045300094E0998788871A860E94160CDC01AF5D8B
:10454000BB4FED91FC911197309709F0D5C0CD93F9
:10455000DC93FC01ED5DFB4F808191812E813F81D9
:10456000820F931F9183808328853985820F931F43
:10457000918380839091FA06892F869586958695FA
:10458000977009F0C1C08093FB06C091FB068C2F89
:1045900090E00E946F2A9093F8068093F70680912E
:1045A000FC0690E0019695958795CE5F8C0F8093E1
:1045B00020071092E0061092DF061092E206109299
:1045C000E1061092E4061092E3061092E6061092BD
:1045D000E5061092E8061092E7061092EA0610929D
:1045E000E9061092EC061092EB061092EE0610927D
:1045F000ED068FEF9FEF9093F0068093EF06909378
:10460000F2068093F1069093F4068093F30690935C
:10461000F6068093F50690E080E02091FB062817CF
:10462000190611F00CF072C01092B7071092B8077B
:104630001092B9071092BA071092BB071092BC07EC
:104640001092BD071092BE071092BF071092C007CC
:104650001092C1071092C2071092C3071092C407AC
:104660001092C5071092C6071092A7071092A807CC
:104670001092A9071092AA071092AB071092AC07EC
:104680001092AD071092AE071092AF071092B007CC
:104690001092B1071092B2071092B3071092B407AC
:1046A0001092B5071092B6071092970710929807CC
:1046B0001092990710929A0710929B0710929C07EC
:1046C00010929D0710929E0710929F071092A007CC
:1046D0001092A1071092A2071092A3071092A407AC
:1046E0001092A5071092A607DF91CF911F910F910D
:1046F000FF90EF900895F901208131812115310556
:10470000D1F7D183C08325CF8F5F3DCFE091F706EE
:10471000F091F806E80FF91F108201967ECFCF9333
:10472000DF93CDB7DEB7C057D1090FB6F894DEBF1F
:104730000FBECDBF789484B5826084BD84B581609E
:1047400084BD85B5826085BD85B5816085BD80915C
:104750006E00816080936E001092810080918100D4
:1047600082608093810080918100816080938100CC
:1047700080918000816080938000809191008260B0
:10478000809391008091910081608093910080914D
:1047900090008160809390008091C100846080933C
:1047A000C1008091C10082608093C1008091C100EE
:1047B00081608093C1008091C30081608093C300B9
:1047C0008091C00082608093C0008091C2008160AF
:1047D0008093C20080917A00846080937A008091F7
:1047E0007A00826080937A0080917A008160809361
:1047F0007A0080917A00806880937A00109269062E
:1048000010926806109267068091D70081608093AD
:10481000D70080EA8093D80089B5806189BD89B5C9
:10482000826089BD09B400FEFDCF0E940808809116
:10483000D8008F7C80618093D8008091E000807FD9
:104840008093E0008091E1008E7E8093E1008DE016
:104850008093E200559A209A8FEF9FEF90939C06E9
:1048600080939B0661E088E00E940F0761E08AE088
:104870000E940F0761E089E00E940F0762E083E079
:104880000E940F0762E082E00E940F072CE238E0EE
:104890003093140120931301809169008C7F816013
:1048A00080936900E89A3093160120931501809156
:1048B0006900837F846080936900E99A80E59BEFBB
:1048C000909300078093FF0680EB94E0909302079B
:1048D0008093010780E7E6E5F1E0DE0111960190A3
:1048E0000D928A95E1F780E090E0A0E8BEE38DA705
:1048F0009EA7AFA7B8ABA9968CAF9DAFAEAFBFAF29
:10490000A99780E7FE013196A5E2B7E001900D92EC
:104910008A95E1F781E08093F9060E94D90C109204
:10492000B7071092B8071092B9071092BA0780E63D
:1049300092E5ABECBCE38093BB079093BC07A093DC
:10494000BD07B093BE071092A7071092A807109258
:10495000A9071092AA078093AB079093AC07A09386
:10496000AD07B093AE071092970710929807109278
:10497000990710929A0780939B0790939C07A093A6
:104980009D07B0939E071092BF071092C007109228
:10499000C1071092C2078093C3079093C407A093E6
:1049A000C507B093C6071092AF071092B0071092D8
:1049B000B1071092B2078093B3079093B407A09306
:1049C000B507B093B60710929F071092A0071092F8
:1049D000A1071092A2078093A3079093A407A09326
:1049E000A507B093A60710926A0610926B06109264
:1049F0006C0610926D061092820610928306109239
:104A000084061092850610927E0610927F06109200
:104A100080061092810680E1882E87E2982EA12CD4
:104A2000B12C11E004E990EB492E94E0592E612C51
:104A3000712C8FE896E00E94CC0A18161906B4F57E
:104A40008FE896E00E94820A009791F480916E06AA
:104A500081110BC010936E0690E080E00E941A0B4B
:104A600082E090E00E941A0B21C081E090E0F6CF36
:104A70008130910519F410936E06F2CF84309105C0
:104A800009F426C10CF0F7C0039709F442C185E090
:104A900090E00E941A0B09831A8342E050E0BE01A5
:104AA0006F5F7F4F8FE896E00E94460A0E942008C1
:104AB0006B017C018091820690918306A09184060F
:104AC000B0918506C816D906EA06FB0608F488C028
:104AD00080916F0690917006A0917106B091720658
:104AE0008093730690937406A0937506B093760630
:104AF0008091730690917406A0917506B091760628
:104B0000813B9440A105B1050CF411C110937706C7
:104B10004092730650927406609275067092760603
:104B20008091730690917406A0917506B0917606F7
:104B30009093E0068093DF068091F90681110E9430
:104B4000D90CD701C6010296A11DB11D8093820622
:104B500090938306A0938406B093850680917E0689
:104B600090917F06A0918006B0918106C816D90663
:104B7000EA06FB0628F480917D06882309F4F6C036
:104B800081E00E94830E94E6C90ED11CE11CF11C49
:104B9000C0927E06D0927F06E0928006F092810657
:104BA00010927D0680917C068823D1F083E090E00E
:104BB0000E941A0B6091780670917906072E000CFE
:104BC000880B990B0E94000B60917A0670917B060E
:104BD000072E000C880B990B0E94000B10927C068C
:104BE000C0907806D09079060D2C000CEE08FF08D6
:104BF0004AE0C701B601F7FE0DC06DE28FE896E00E
:104C00000E945C0A66277727CB016C197D098E0903
:104C10009F094AE00E94350E42E050E064EF71E0E7
:104C20008FE896E00E94460A809178069091790676
:104C300060E0892B09F061E088E00E949E06A09167
:104C40007806B0917906809177068111AFC01A1667
:104C50001B060CF08FC022EC30E00E949527A501C6
:104C600094010E94F426CA01B9016E5C7F4F8F4FF8
:104C70009F4F8AE091C08730910509F44DC0089795
:104C800009F005CF81E090E00E94DC0A8FE896E011
:104C90000E94820A682F880F770B880B990B0E945D
:104CA000BD2820E030E048EC52E40E9413286093D5
:104CB000590770935A0780935B0790935C07609342
:104CC0009107709392078093930790939407C8CEAF
:104CD00082E090E00E94DC0A8FE896E00E94820A5F
:104CE00097FD07C0282E8FE896E00E94820A97FF62
:104CF000382EC101092E000CAA0BBB0B8093730642
:104D000090937406A0937506B093760610937D0673
:104D1000A7CE10937C06A4CE87E090E00E941A0BE9
:104D200061EC76EC8DE290E00E94000B99CE8091D0
:104D3000730690917406A0917506B0917606803541
:104D40009B4FAF4FBF4F7CF41093770680E59BEFEE
:104D5000AFEFBFEF8093730690937406A093750630
:104D6000B0937606DDCE10927706DACE80E00E9410
:104D7000830E18CFB195A195B10922EC30E00E94C5
:104D80009527A50194010E94F426CA01B9016E5C21
:104D90007F4F8F4F9F4F89E00E944007A0E0B0E017
:104DA000AB2B09F446CE0E94000043CEC0907306A0
:104DB000D0907406E0907506F0907606B7FF03C0B9
:104DC000B195A195B10922EC30E00E949527A5018B
:104DD00094010E94F426CA01B9016E5C7F4F8F4F87
:104DE0009F4FF7FE46CFD7CF052E97FB1EF40094BA
:104DF0000E940B2757FD07D00E94262707FC03D0EF
:104E00004EF40C940B2750954095309521953F4FCB
:104E10004F4F5F4F089590958095709561957F4FA6
:104E20008F4F9F4F08950E944827A59F900DB49FD4
:104E3000900DA49F800D911D11240895B7FF0C942F
:104E400013270E941327821B930B0895A1E21A2EA9
:104E5000AA1BBB1BFD010DC0AA1FBB1FEE1FFF1F1E
:104E6000A217B307E407F50720F0A21BB30BE40B6E
:104E7000F50B661F771F881F991F1A9469F76095B5
:104E80007095809590959B01AC01BD01CF0108956F
:104E9000A29FB001B39FC001A39F700D811D11247B
:104EA000911DB29F700D811D1124911D0895DB018C
:104EB0008F939F930E941327BF91AF91A29F800D64
:104EC000911DA39F900DB29F900D11240895AA1BD0
:104ED000BB1B51E107C0AA1FBB1FA617B70710F0E5
:104EE000A61BB70B881F991F5A95A9F78095909517
:104EF000BC01CD01089597FB072E16F4009407D04E
:104F000077FD09D00E94672707FC05D03EF49095F5
:104F100081959F4F0895709561957F4F0895EE0F8D
:104F2000FF1F0590F491E02D09940E944827B7FFD8
:104F30000895821B930B08955058BB27AA270E94FF
:104F4000B4270C945E290E94252938F00E942C2950
:104F500020F039F49F3F19F426F40C9422290EF422
:104F6000E095E7FB0C941C29E92F0E94832958F354
:104F7000BA17620773078407950720F079F4A6F53E
:104F80000C94A5290EF4E0950B2EBA2FA02D0B0141
:104F9000B90190010C01CA01A0011124FF27591B7E
:104FA00099F0593F50F4503E68F11A16F040A22F84
:104FB000232F342F4427585FF3CF469537952795F5
:104FC000A795F0405395C9F77EF41F16BA0B620BF4
:104FD000730B840BBAF09150A1F0FF0FBB1F661F3B
:104FE000771F881FC2F70EC0BA0F621F731F841F7E
:104FF00048F4879577956795B795F7959E3F08F0A4
:10500000B0CF9395880F08F09927EE0F9795879565
:1050100008950E94F82808F481E008950E94352937
:10502000E3950C946F290E9427280C945E290E9416
:105030002C2958F00E94252940F029F45F3F29F0DF
:105040000C941C2951110C94A6290C9422290E941D
:10505000832968F39923B1F3552391F3951B550BDD
:10506000BB27AA2762177307840738F09F5F5F4F3B
:10507000220F331F441FAA1FA9F335D00E2E3AF07A
:10508000E0E832D091505040E695001CCAF72BD092
:10509000FE2F29D0660F771F881FBB1F26173707E3
:1050A0004807AB07B0E809F0BB0B802DBF01FF2715
:1050B00093585F4F3AF09E3F510578F00C941C29AD
:1050C0000C94A6295F3FE4F3983ED4F38695779538
:1050D0006795B795F7959F5FC9F7880F911D9695CE
:1050E000879597F90895E1E0660F771F881FBB1F2A
:1050F000621773078407BA0720F0621B730B840BD7
:10510000BA0BEE1F88F7E09508950E948C286894EA
:10511000B1110C94A62908950E948B2988F09F57FD
:1051200098F0B92F9927B751B0F0E1F0660F771FCB
:10513000881F991F1AF0BA95C9F714C0B13091F0C1
:105140000E94A529B1E008950C94A529672F782F16
:105150008827B85F39F0B93FCCF386957795679586
:10516000B395D9F73EF490958095709561957F4FF2
:105170008F4F9F4F0895E89409C097FB3EF4909598
:105180008095709561957F4F8F4F9F4F9923A9F020
:10519000F92F96E9BB279395F695879577956795AF
:1051A000B795F111F8CFFAF4BB0F11F460FF1BC0F3
:1051B0006F5F7F4F8F4F9F4F16C0882311F096E986
:1051C00011C0772321F09EE8872F762F05C0662334
:1051D00071F096E8862F70E060E02AF09A95660FED
:1051E000771F881FDAF7880F9695879597F90895A6
:1051F000990F0008550FAA0BE0E8FEEF16161706E8
:10520000E807F907C0F012161306E407F50798F04F
:10521000621B730B840B950B39F40A2661F0232B68
:10522000242B252B21F408950A2609F4A140A695E4
:105230008FEF811D811D089597F99F6780E870E0C9
:1052400060E008959FEF80EC089500240A941616FC
:10525000170618060906089500240A941216130664
:105260001406050608950C9422290E948B29D8F370
:10527000E894E0E0BB279F57F0F02AED3FE049ECCF
:1052800006C0EE0FBB0F661F771F881F28F0B23ACB
:1052900062077307840728F0B25A620B730B840B02
:1052A000E3959A9572F7803830F49A95BB0F661F94
:1052B000771F881FD2F790480C94282A092E039450
:1052C000000C11F4882352F0BB0F40F4BF2B11F4F3
:1052D00060FF04C06F5F7F4F8F4F9F4F0895EF9324
:1052E000E0FF07C0A2EA2AED3FE049EC5FEB0E9435
:1052F000B4270E945E290F90039401FC9058ECEAB9
:10530000F0E00C94342A57FD9058440F551F59F083
:105310005F3F71F04795880F97FB991F61F09F3FA2
:1053200079F087950895121613061406551FF2CFCB
:105330004695F1DF08C0161617061806991FF1CF1B
:1053400086957105610508940895E894BB27662742
:105350007727CB0197F908950E94F82808F48FEF7A
:1053600008950E94C4290C945E290E94252938F0D2
:105370000E942C2920F0952311F00C941C290C94E8
:10538000222911240C94A6290E94832970F3959F49
:10539000C1F3950F50E0551F629FF001729FBB272C
:1053A000F00DB11D639FAA27F00DB11DAA1F649FC8
:1053B0006627B00DA11D661F829F2227B00DA11D7B
:1053C000621F739FB00DA11D621F839FA00D611D01
:1053D000221F749F3327A00D611D231F849F600D22
:1053E000211D822F762F6A2F11249F5750409AF04B
:1053F000F1F088234AF0EE0FFF1FBB1F661F771FD7
:10540000881F91505040A9F79E3F510580F00C94A1
:105410001C290C94A6295F3FE4F3983ED4F38695AB
:1054200077956795B795F795E7959F5FC1F7FE2B41
:10543000880F911D9695879597F908959F930E94DF
:1054400035290F9007FCEE5F0C946F299F3F31F0D8
:10545000915020F4879577956795B795880F911DA2
:105460009695879597F908959F938F937F936F9360
:10547000FF93EF939B01AC010E94B129EF91FF9143
:105480000E94482A2F913F914F915F910C94B1292E
:10549000DF93CF931F930F93FF92EF92DF927B01E5
:1054A0008C01689406C0DA2EEF010E94C429FE0127
:1054B000E894A5912591359145915591A6F3EF0179
:1054C0000E94B427FE019701A801DA9469F7DF90E2
:1054D000EF90FF900F911F91CF91DF9108950F935F
:1054E0001F93CF93DF938230910510F482E090E018
:1054F000E091C907F091CA0730E020E0B0E0A0E0F9
:10550000309799F42115310509F44AC0281B390B4D
:1055100024303105D8F58A819B816115710589F1A7
:10552000FB0193838283FE0111C04081518102817E
:10553000138148175907E0F04817590799F4109755
:1055400061F012960C93129713961C933296CF012A
:10555000DF91CF911F910F9108950093C907109388
:10556000CA07F4CF2115310551F04217530738F01F
:10557000A901DB019A01BD01DF01F801C1CFEF01F3
:10558000F9CF9093CA078093C907CDCFFE01E20FF0
:10559000F31F819391932250310939832883D7CF08
:1055A0002091C7073091C807232B41F420914F0168
:1055B000309150013093C8072093C70720914D01C7
:1055C00030914E012115310541F42DB73EB7409180
:1055D000510150915201241B350BE091C707F09106
:1055E000C807E217F307A0F42E1B3F0B2817390753
:1055F00078F0AC014E5F5F4F2417350748F04E0F2F
:105600005F1F5093C8074093C707819391939FCF23
:10561000F0E0E0E09CCFCF93DF930097E9F0FC014E
:10562000329713821282A091C907B091CA07ED0187
:1056300030E020E01097A1F420813181820F931F88
:105640002091C7073091C8072817390709F061C0B2
:10565000F093C807E093C707DF91CF910895EA015F
:10566000CE17DF07E8F54A815B819E0141155105A0
:10567000B1F7E901FB83EA8349915991C40FD51F22
:10568000EC17FD0761F4808191810296840F951FCC
:10569000E90199838883828193819B838A83F0E0E7
:1056A000E0E012968D919C9113970097B9F52D919A
:1056B0003C911197CD010296820F931F2091C7074D
:1056C0003091C8072817390739F6309751F51092ED
:1056D000CA071092C907B093C807A093C707BCCFE9
:1056E000D383C28340815181840F951FC817D90786
:1056F00061F44E5F5F4F88819981480F591F518334
:1057000040838A819B81938382832115310509F02F
:10571000B0CFF093CA07E093C9079ECFFD01DC012B
:10572000C0CF13821282D7CFFB01DC0102C00190EF
:0E5730000D9241505040D8F70895F894FFCFE5
:10573E0000C18081000000FFFFFFFF00E1000000BC
:10574E000000005F085F085F085F085F0800000048
:10575E00000000000000401C450080BB4500401CBE
:10576E004600401C46000000000000000000007AC9
:10577E004300007A4500409C4500409C450000CB0C
:10578E00078000021E000000803F0000803F0000E6
:10579E00803F0000803F0000803F0000803F0000FF
:1057AE00803F0000803F0000803F0000803F0000EF
:1057BE00803F0000803F0000803F0000000000009E
:1057CE00803F0000803F0000803F0000803F0000CF
:1057DE00803F0000803F0000803F0000803F0000BF
:1057EE00803F0000803F0000803F0000803F0000AF
:1057FE00803F0000000000000000471CBC0B680B3F
:10580E004E0B0001FF00FF000001010000FF00FF32
:10581E000100000000005C0A460A7D0A720ACC0AEA
:08582E00820AA40A0D0A000021
:00000001FF
